:020000040800F2
:1000000000000220890D0008E90D0008E90D000834
:10001000E90D0008E90D0008E90D000800000000E6
:100020000000000000000000000000006D26000835
:10003000E90D000800000000E92700083928000841
:10004000E90D0008E90D0008E90D0008E90D0008B8
:10005000E90D0008E90D0008E90D0008E90D0008A8
:10006000E90D0008E90D0008E90D0008E90D000898
:10007000E90D0008E90D0008E90D0008E90D000888
:10008000E90D0008E90D0008E90D0008E90D000878
:10009000E90D0008E90D0008E90D0008BD0C000895
:1000A000E90D0008E90D0008E90D0008E90D000858
:1000B000990C00085D0C0008E90D0008E90D000826
:1000C000E90D0008E90D0008E90D0008E90D000838
:1000D000E90D0008FD030008E90D0008E90D00081E
:1000E000E90D0008E90D0008E90D0008E90D000818
:1000F000E90D0008E90D0008E90D0008E90D000808
:10010000E90D0008E90D0008E90D0008E90D0008F7
:10011000E90D0008E90D0008E90D0008E90D0008E7
:10012000E90D0008E90D0008E90D0008E90D0008D7
:10013000E90D0008E90D0008E90D0008E90D0008C7
:10014000E90D0008E90D0008E90D0008E90D0008B7
:10015000E90D0008E90D0008E90D0008E90D0008A7
:10016000E90D0008E90D0008E90D0008E90D000897
:10017000E90D0008E90D0008E90D0008E90D000887
:08018000E90D0008E90D00087B
:1001880010B5054C237833B9044B13B10448AFF3C9
:1001980000800123237010BD5804002000000000D7
:1001A8008445000808B5064B1BB106480649AFF35D
:1001B80000800648036813B1054B03B1984708BD92
:1001C80000000000844500085C040020580400205A
:1001D80000000000844641EA000313F003036DD1D8
:1001E800403A41D351F8043B40F8043B51F8043BF2
:1001F80040F8043B51F8043B40F8043B51F8043BF9
:1002080040F8043B51F8043B40F8043B51F8043BE8
:1002180040F8043B51F8043B40F8043B51F8043BD8
:1002280040F8043B51F8043B40F8043B51F8043BC8
:1002380040F8043B51F8043B40F8043B51F8043BB8
:1002480040F8043B51F8043B40F8043B51F8043BA8
:1002580040F8043B51F8043B40F8043B51F8043B98
:1002680040F8043B403ABDD2303211D351F8043B38
:1002780040F8043B51F8043B40F8043B51F8043B78
:1002880040F8043B51F8043B40F8043B103AEDD2E7
:100298000C3205D351F8043B40F8043B043AF9D238
:1002A800043208D0D2071CBF11F8013B00F8013B0B
:1002B80001D30B8803806046704700BF082A13D318
:1002C8008B078DD010F003038AD0C3F10403D21A30
:1002D800DB071CBF11F8013B00F8013B80D331F864
:1002E800023B20F8023B7BE7043AD9D3013A11F8E4
:1002F800013B00F8013BF9D20B7803704B7843704F
:100308008B7883706046704780B588B000AF102046
:10031800012103F043FA0220012103F007FAC02368
:10032800BB6102233B7702237B770023BB77012342
:10033800FB7707F118031D48194602F00FFF1B4809
:100348000621072203F020F818480721072203F0A6
:100358001BF84FF41643BB600023BB810023FB81CD
:1003680000233B820023BB820C237B8207F1080316
:100378000F48194603F04AFA0D4840F22551012268
:1003880003F042FC25233B7100237B710023BB71E2
:100398000123FB713B1D184602F04AFE0448012167
:1003A80003F09AFB2037BD4680BD00BF0004024021
:1003B8000010014080B582B000AF786010E000BF47
:1003C8000B4B1B889BB203F04003002BF8D07B68D3
:1003D8001B780748194603F0D3FB7B6801337B6021
:1003E8007B681B78002BEAD10837BD4680BD00BF6B
:1003F8000010014080B582B000AF134840F225518B
:1004080003F0C0FC0346002B1BD00F4B9B889BB20C
:10041800FB71FB790A2B11D00C4B1B78DBB25BB25A
:10042800002B0BDB094B1B78094AF979D154074B90
:100438001B780133DAB2054B1A7002E0034B002235
:100448001A700837BD4680BD0010014074040020B2
:10045800D031012080B485B000AF78600B467B8036
:10046800FF23FB73FF23BB7313E07B685A1C7A607E
:100478001A78FB7B5340DBB2BB600F4ABB6813445E
:100488001A78BB7B5340FB730C4ABB6813441B7838
:10049800BB737B885A1E7A80002BE6D1FB7B1B023C
:1004A8009AB2BB7B9BB213439BB29BB218461437DC
:1004B800BD465DF8047B70474C4300084C44000877
:1004C80080B582B000AF786039607868FFF772FF56
:1004D8003B6818460837BD4680BD00BF80B485B06C
:1004E80000AF786039600023FB600BE0FB687A6836
:1004F80013440A49FA680A441278D2B21A70FB689F
:100508000133FB60FA683B689A42EFDB3B681846A8
:100518001437BD465DF8047B704700BFD031012019
:1005280080B5ADF5087D00AF07F1080319603B1DE4
:100538001A6007F10E0302461A8007F114033622E7
:100548001A7007F1140302225A7007F10E03B3F967
:1005580000301B129BB2DAB207F114039A7007F14C
:100568000E031B88DAB207F11403DA7007F10803E7
:100578001B681B12DAB207F114031A7107F108039A
:100588001B68DAB207F114035A710623C7F8183248
:10059800D7F818329BB207F1140210461946FFF734
:1005A80059FF0346A7F81632D7F818325A1CC7F86D
:1005B8001822B7F81622120A92B2D1B207F1140221
:1005C800D154D7F818325A1CC7F81822B7F816228F
:1005D800D1B207F11402D15407F114031846D7F821
:1005E8001812FFF76DFFC7F81C02D7F81C32002B52
:1005F8000DDD3B1D18680621FFF770FFC7F81C02C8
:10060800D7F81C32002B02DA4FF0FF3301E0D7F89D
:100618001C32184607F50877BD4680BD80B5ADF594
:100628000C7D00AF07F1080319603B1D1A6007F144
:100638000E0302461A800023C7F828320023C7F8A1
:10064800243207F1100336221A7007F110030F2223
:100658005A7007F10E031B881B0A9BB2DAB207F126
:1006680010039A7007F10E031B88DAB207F1100322
:10067800DA7007F108031B681B12DAB207F11003DE
:100688001A7107F108031B68DAB207F110035A71EF
:100698000623C7F82C3207F108031B68002B00DA81
:1006A8000733DB101A4607F108031B6803F007033A
:1006B800002B0CBF00230123DBB21344C7F8183208
:1006C800D7F82C325A1CC7F82C22D7F81822D1B2E6
:1006D80007F11002D1540023C7F820325CE001234F
:1006E800C7F81C3207F11002D7F82C321344002245
:1006F8001A7038E0D7F824325A1CC7F824223A1D59
:10070800126813441B78002B13D007F11002D7F896
:100718002C3213441B78DAB2D7F81C32DBB21343FD
:10072800DBB2DAB207F11001D7F82C320B441A7099
:1007380014E007F11002D7F82C3213441B78DAB210
:10074800D7F81C32DBB2DB43DBB21340DBB2DAB2E0
:1007580007F11001D7F82C320B441A70D7F81C3265
:100768005B00C7F81C32D7F81C32DBB2002B09D06B
:10077800D7F828325A1CC7F8282207F1080212684D
:100788009342B7DBD7F82C320133C7F82C32D7F8AD
:1007980020320133C7F82032D7F82022D7F8183290
:1007A8009A429CDBD7F82C329BB207F11002104614
:1007B8001946FFF74FFE0346A7F81632D7F82C3232
:1007C8005A1CC7F82C22B7F81622120A92B2D1B2D4
:1007D80007F11002D154D7F82C325A1CC7F82C2232
:1007E800B7F81622D1B207F11002D15407F110035D
:1007F8001846D7F82C12FFF763FEC7F81002D7F88F
:100808001032002B05DD07F1100318460821FFF709
:1008180065FED7F81032184607F50C77BD4680BD3F
:1008280080B5ADF50A7D00AF07F10C03186007F13C
:10083800080319603B1D1A6007F1140336221A7069
:1008480007F1140310225A7007F10C031B681B12DE
:10085800DAB207F114039A7007F10C031B68DAB2D5
:1008680007F11403DA7007F108031B681B12DAB2E8
:1008780007F114031A7107F108031B68DAB207F1CC
:1008880014035A710623C7F8203207F108031B68BE
:100898005B00C7F81C32D7F820325A1CC7F8202250
:1008A800D7F81C22D1B207F11402D1540023C7F89B
:1008B800243226E0D7F820325A1CC7F82022D7F86D
:1008C80024225200391D09680A441288120A92B279
:1008D800D1B207F11402D154D7F820325A1CC7F804
:1008E8002022D7F824225200391D09680A441288A8
:1008F800D1B207F11402D154D7F824320133C7F822
:10090800243207F10803D7F824221B689A42D1DB66
:10091800D7F820329BB207F1140210461946FFF7A8
:1009280099FD0346A7F81A32D7F820325A1CC7F89F
:100938002022B7F81A22120A92B2D1B207F1140291
:10094800D154D7F820325A1CC7F82022B7F81A22F7
:10095800D1B207F11402D15407F114031846D7F89D
:100968002012FFF7ADFDC7F81402D7F81432002B98
:1009780005DD07F1140318460821FFF7AFFDD7F886
:100988001432184607F50A77BD4680BD80B5ADF527
:10099800856D00AF07F10C03186007F108031960B3
:1009A8003B1D1A6007F5047336221A7007F50473A5
:1009B80004225A7007F10C031B681B12DAB207F500
:1009C80004739A7007F10C031B68DAB207F5047315
:1009D800DA7007F108031B681B12DAB207F5047313
:1009E8001A7107F108031B68DAB207F504735A7124
:1009F8000623C7F8203407F108031B685B00C7F813
:100A08001C34D7F820345A1CC7F82024D7F81C24E3
:100A1800D1B207F50472D154D7F820349BB207F548
:100A2800047210461946FFF715FD0346A7F81A3455
:100A3800D7F820345A1CC7F82024B7F81A24120A09
:100A480092B2D1B207F50472D154D7F820345A1CA7
:100A5800C7F82024B7F81A24D1B207F50472D15484
:100A680007F504731846D7F82014FFF729FDC7F8CF
:100A78001404D7F81434002B02DA4FF0FF3340E0A7
:100A880007F108031B685B00053307F110021046E5
:100A98001946FFF723FDC7F814040223C7F81034DA
:100AA8000023C7F8243424E0D7F824345B003A1D27
:100AB80012681344D7F81024911CD7F82424520044
:100AC8000A4407F110018A5C120291B2D7F8102487
:100AD800D01CD7F824245200024407F11000825C8D
:100AE8000A4392B292B21A80D7F824340133C7F875
:100AF800243407F10803D7F824241B689A42D3DB6F
:100B08000023184607F58567BD4680BD80B58EB0C1
:100B180000AF7860012387F82830012387F829304F
:100B2800012387F82A30012387F82B304FF4FA6322
:100B38003B8100237B8140F6CA03BB810F23FB81E5
:100B48000F233B8207F12C03002008211A46FFF7E8
:100B5800E7FC0346002B02DA002000F0A5FA07F1B3
:100B6800140300200A211A46FFF710FF07F1280393
:100B7800002003211A46FFF751FD07F10803002062
:100B880005211A46FFF74CFE4FF4FA737B6307F111
:100B9800140300200A211A46FFF7F8FE786B00F0CC
:100BA80021FBF4E780B483B000AF0346FB71094B27
:100BB80097F907205209F97901F01F01012000FA7D
:100BC80001F1403243F822100C37BD465DF8047B32
:100BD800704700BF00E100E080B584B004AF00F0CA
:100BE80019F8012002F058F901230093002301931A
:100BF8000023029300230393044805494FF48272AB
:100C0800002300F09DF900F015FBFEE7150B000826
:100C18007C41000880B500AF00F0E4F84FF4407064
:100C280002F0DCF9FFF770FB00F082F880BD00BF2E
:100C380080B500AF064B1B685A1C054B1A601C2078
:100C4800FFF7B0FF024B1B685A1E014B1A6080BDAC
:100C58007804002080B400AF0B4B1B685A1C0A4B69
:100C68001A60094B1A68094B1B689A4203D9064B4C
:100C78001A68064B1A60044B1B685A1E024B1A600E
:100C8800BD465DF8047B7047780400207C04002092
:100C980080B500AF064B1B685A1C054B1A601D2017
:100CA800FFF780FF024B1B685A1E014B1A6080BD7C
:100CB8007804002080B582B000AF00237B6040201C
:100CC80002F030FA094B1A683B1D104600211A46FB
:100CD800002301F067F97B68002B03D0044B4FF029
:100CE80080521A600837BD4680BD00BF80040020CE
:100CF80004ED00E080B500AF01F064FDFEE700BF41
:100D080080B400AFBD465DF8047B704780B582B003
:100D180000AF7860396001F055FDFEE780B483B01C
:100D280000AF786039600C37BD465DF8047B7047CA
:100D380080B500AF012002F005F9002002F002F9A9
:100D4800022002F0FFF8032002F0FCF880BD00BF8B
:100D580080B582B000AF78607B68032B0AD801F0B9
:100D68000FFD064A7B6813441B78184602F018F9F1
:100D780001F016FD0837BD4680BD00BF4C45000890
:100D8800002100F004B8104B5B58435004310F4861
:100D98000F4B42189A42FFF4F6AF0E4A00F003B820
:100DA800002342F8043B0C4B9A42FFF4F9AF0B487E
:100DB800016841F47001016000F014F803F0B8F81C
:100DC800FFF70AFF70470000A84500080000002050
:100DD80058040020580400205432012088ED00E017
:100DE800FFF7FEBF80B500AF154B154AD2F8882033
:100DF80042F47002C3F88820124B124A126842F07B
:100E080001021A600F4B00229A600E4A0D4B1B68B4
:100E180023F0847323F4803313600A4B0A4A5A6020
:100E2800084B084A126822F480221A60054B0022F7
:100E3800DA6000F00BF8024B4FF000629A6080BD58
:100E480000ED00E0003802401030002480B483B088
:100E580000AF00237B6000233B60354B344A1268A7
:100E680042F480321A60324B1B6803F400333B6053
:100E78007B6801337B603B68002B03D17B68B3F54B
:100E8800A06FF0D12A4B1B6803F40033002B02D06B
:100E980001233B6001E000233B603B68012B42D10A
:100EA800234B234A126C42F080521A64214B214A88
:100EB800126842F480421A601D4B1D4A92689A607B
:100EC8001B4B1B4A926842F400429A60184B184A1E
:100ED800926842F4A0529A60154B174A5A60144B14
:100EE800134A126842F080721A6000BF104B1B68E8
:100EF80003F00073002BF9D0104B40F204621A6023
:100F08000B4B0B4A926822F003029A60084B084A7E
:100F1800926842F002029A6000BF054B9B6803F09A
:100F28000C03082BF9D10C37BD465DF8047B7047DC
:100F38000038024000700040194B4007003C024056
:100F480080B58AB002AFF860B9603B601346FB8099
:100F5800FB68002B02D101F035FCFEE7BB6A042BCD
:100F680002D901F02FFCFEE7FB881846396B00F028
:100F7800C7FDB861BB69002B72D0BB691A6BFB88CF
:100F880003F18043013B9B0013447B617B6923F0A1
:100F980007037B617B6903F00703002B02D001F094
:100FA80011FCFEE7FB880093B869B968BA6A7B6BE5
:100FB80000F0B0FC7869F9683A6801F011FB024664
:100FC800BB691A60FB6A002B02D0FB6ABA691A6017
:100FD80001F0D6FB2E4B1B685A1C2D4B1A602D4B6B
:100FE8001B68002B09D12B4BBA691A60284B1B6868
:100FF800012B0FD100F0D6FC0CE0274B1B68002B0F
:1010080008D1244B1B68DA6ABB6A9A4202D8214B82
:10101800BA691A60214B1B685A1C204B1A601F4B77
:101028001A68BB691A64BB69DA6A1D4B1B689A4265
:1010380003D9BB69DA6A1A4B1A60BB69DA6A1346C4
:101048009B0013449B00174A1A44BB69043310469B
:10105800194601F03FFA0123FB6101F0A1FB02E010
:101068004FF0FF33FB61FB69012B0BD10A4B1B6867
:10107800002B07D0074B1B68DA6ABB6A9A4201D279
:1010880001F06EFBFB6918462037BD4680BD00BFE6
:101098005C05002084040020680500207C050020F1
:1010A800640500208804002080B584B000AF786013
:1010B80001F066FB7B68002B02D1194B1B6800E02E
:1010C8007B68FB60FB680433184601F05FFAFB6835
:1010D8009B6A002B04D0FB681833184601F056FAB7
:1010E800FB6804330F48194601F0F4F90E4B1B68EE
:1010F8005A1C0D4B1A600D4B1B685A1C0B4B1A607F
:1011080001F04EFB0A4B1B68002B06D0044B1B68F2
:10111800FA689A4201D101F023FB1037BD4680BD21
:101128008404002030050020440500207C050020B0
:101138006805002080B586B000AF7860396000236C
:101148007B617B68002B02D101F03CFBFEE73B682A
:10115800002B02D101F036FBFEE700F0A3F81F4B8D
:101168001B683B617B681A683B681344FB607B68BB
:101178001A683B699A420BD97B681A68FB689A42DD
:1011880011D9FA683B699A420DD901237B610AE0BB
:101198007B681A68FB689A4203D8FA683B699A42E6
:1011A80001D901237B617B68FA681A607B69002B8F
:1011B80008D00B4B1B680433184601F0E7F9F868B0
:1011C80000F068FC00F07CF8B860BB68002B01D127
:1011D80001F0C6FA1837BD4680BD00BF6005002083
:1011E8008404002080B584B000AF78600023FB60E1
:1011F8007B68002B12D000F055F80C4B1A687B68FE
:101208001344BB600A4B1B680433184601F0BEF94F
:10121800B86800F03FFC00F053F8F860FB68002B5A
:1012280001D101F09DFA1037BD4680BD6005002050
:101238008404002080B586B004AF00230093002307
:101248000193002302930023039312481249822238
:101258000023FFF775FE78607B68012B02D101F04F
:101268004BFB78607B68012B0AD101F0ABFA0B4B82
:1012780001221A600A4B00221A6001F00BFA05E0FD
:101288007B68002B02D101F09DFAFEE70837BD46C6
:1012980080BD00BFF9180008A841000868050020B3
:1012A8006005002080B400AF044B1B685A1C034B38
:1012B8001A60BD465DF8047B704700BF6C050020CE
:1012C80080B582B000AF00237B60384B1B68002BD1
:1012D80002D101F077FAFEE701F052FA334B1B68AE
:1012E8005A1E324B1A60314B1B68002B56D1304BBB
:1012F8001B68002B52D02FE02E4BDB68DB683B606D
:101308003B681833184601F041F93B680433184626
:1013180001F03CF93B68DA6A274B1B689A4203D90B
:101328003B68DA6A244B1A603B68DA6A13469B000A
:1013380013449B00214A1A443B680433104619465B
:1013480001F0C8F83B68DA6A1D4B1B68DB6A9A42F1
:1013580002D31C4B01221A60164B1B68002BCBD101
:10136800194B1B68002B11D00CE000F041F8034624
:10137800002B02D0134B01221A60134B1B685A1E14
:10138800114B1A60104B1B68002BEED10D4B1B68DC
:10139800012B03D101237B6001F0E2F901F000FA8F
:1013A8007B6818460837BD4680BD00BF6C05002025
:1013B8005C0500201C05002064050020880400202E
:1013C80084040020740500207005002080B582B0D8
:1013D80000AF01F0D5F9054B1B687B6001F0E0F91F
:1013E8007B6818460837BD4680BD00BF60050020F1
:1013F80080B586B000AF00237B615D4B1B68002B76
:1014080040F0A4805B4B1B685A1C5A4B1A60594B1E
:101418001B683B613B69002B2ED1574B1B681B682F
:10142800002B02D001F0CEF9FEE7534B1B68FB609E
:10143800524B1A68504B1A60504BFA681A60504B5E
:101448001B685A1C4E4B1A604B4B1B681B68002BC1
:1014580001D1012300E00023002B04D0494B4FF0B9
:10146800FF321A6008E0444B1B68DB68DB68BB602E
:10147800BB685A68434B1A60424B1B683A699A42E8
:101488004FD33D4B1B681B68002B01D1012300E0A3
:101498000023002B04D03B4B4FF0FF321A6040E092
:1014A800354B1B68DB68DB68BB60BB685B687B60CF
:1014B8003A697B689A4203D2324B7A681A6030E004
:1014C800BB680433184601F061F8BB689B6A002BBF
:1014D80004D0BB681833184601F058F8BB68DA6ABC
:1014E800294B1B689A4203D9BB68DA6A264B1A60F3
:1014F800BB68DA6A13469B0013449B00234A1A44CC
:10150800BB6804331046194600F0E4FFBB68DA6A8A
:101518001F4B1B68DB6A9A4202D301237B61B0E749
:10152800AFE71B4B1B68DA6A184913469B00134444
:101538009B000B441B68012B01D901237B61154BD0
:101548001B68002B09D1FFF773FB06E0114B1B68E2
:101558005A1C104B1A60FFF76BFB0F4B1B68002BD4
:1015680001D001237B617B6918461837BD4680BDD1
:101578006C050020600500201405002018050020D7
:10158800780500200400002064050020880400205D
:1015980084040020700500207405002080B582B006
:1015A80000AF354B1B68002B03D0344B01221A6067
:1015B8005EE0324B00221A60314B1B681A68304BD0
:1015C8001B681B6B9A4208D82D4B1A682C4B1B685A
:1015D800343310461946FFF799FB294B1B681B6BE0
:1015E80018462849142202F0CBFC0346002B09D0E8
:1015F800234B1A68224B1B68343310461946FFF7F1
:1016080085FB0CE00BE0204B1B68002B02D101F09E
:10161800D9F8FEE71C4B1B685A1E1B4B1A601A4B65
:101628001A681A4913469B0013449B000B441B6815
:10163800002BE8D0144B1A6813469B0013449B00F8
:10164800124A13447B607B685B685A687B685A60FF
:101658007B685A687B6808339A4204D17B685B6868
:101668005A687B685A607B685B68DA68044B1A6062
:101678000837BD4680BD00BF6C05002074050020FA
:1016880084040020504500086405002088040020D8
:1016980080B584B000AF786039607B68002B02D1D8
:1016A80001F090F8FEE7124B1B681833786819466A
:1016B80000F034FF0E4B1B680433184600F066FF39
:1016C8003B68B3F1FF3F07D1094B1B680433094856
:1016D800194600F0FFFE07E0074B1A683B68134401
:1016E800FB60F86800F0D6F91037BD4680BD00BF32
:1016F80084040020480500206005002080B584B0DF
:1017080000AF786039607B68002B02D101F05AF88D
:10171800FEE70C4B1B6818337868194600F0DAFEB0
:10172800084B1B680433184600F030FF064B1A6854
:101738003B681344FB60F86800F0ACF91037BD460D
:1017480080BD00BF840400206005002080B584B0FF
:1017580000AF78607B68DB68DB68BB60BB68002B28
:1017680002D101F02FF8FEE7BB681833184600F0E5
:101778000DFF1E4B1B68002B1DD1BB680433184698
:1017880000F004FFBB68DA6A194B1B689A4203D958
:10179800BB68DA6A164B1A60BB68DA6A13469B00A4
:1017A80013449B00134A1A44BB6804331046194675
:1017B80000F090FE05E0BB6818330F48194600F0AA
:1017C80089FEBB68DA6A0D4B1B68DB6A9A4205D34F
:1017D8000123FB600A4B01221A6001E00023FB6031
:1017E800FB6818461037BD4680BD00BF6C05002059
:1017F80064050020880400201C05002084040020C3
:101808007405002080B582B000AF78607B68002B3B
:1018180002D100F0D7FFFEE7054B1A687B681A6013
:10182800044B1A687B685A600837BD4680BD00BF04
:10183800780500206005002080B584B000AF78608E
:1018480039607B68002B02D100F0BCFFFEE73B68E3
:10185800002B02D100F0B6FFFEE700F091FF1C4B11
:101868001B68BB603B681B68B3F1FF3F02D10023D4
:10187800FB6026E07B681A68164B1B689A4207D003
:101888007B685A68BB689A4202D80123FB6018E05B
:101898007B685B68BA68D21A3B681B689A420ED2AA
:1018A8003B681A687B685968BB68CB1A1A443B685E
:1018B8001A607868FFF7A6FF0023FB6001E00123A8
:1018C800FB6000F06DFFFB6818461037BD4680BD11
:1018D800600500207805002080B400AF034B01228A
:1018E8001A60BD465DF8047B704700BF7405002090
:1018F80080B582B000AF786000F092F8044B1B68A6
:10190800012B01D900F02CFFFFF7FAF9F4E700BF2B
:101918008804002080B586B000AFF860B9607A60AE
:101928003B6000237B6112E0BA687B6913441A7834
:10193800F9687B690B4430331A71BA687B691344C0
:101948001B78002B00D105E07B6901337B617B6943
:10195800092BE9D9FB68002283F83D207B68042B1A
:1019680001D904237B60FB687A68DA62FB687A68CD
:101978009A64FB680433184600F0A0FDFB6818332E
:10198800184600F09BFDFB68FA681A617B68C3F192
:101998000502FB689A61FB68FA685A621837BD4607
:1019A80080BD00BF80B582B000AF00237B600CE033
:1019B8007A6813469B0013449B00114A1344184647
:1019C80000F05CFD7B6801337B607B68042BEFD9FA
:1019D8000C4800F053FD0C4800F050FD0B4800F097
:1019E8004DFD0B4800F04AFD0A4800F047FD0A4B40
:1019F800044A1A60094B044A1A600837BD4680BD7C
:101A080088040020EC040020000500201C050020AC
:101A18003005002048050020140500201805002086
:101A280080B582B000AF28E0FFF73CFC164B1B687E
:101A3800002B14BF00230123DBB27B60FFF740FCBF
:101A48007B68002B19D100F09BFE0F4BDB68DB682D
:101A58003B603B680433184600F098FD0B4B1B684D
:101A68005A1E0A4B1A600A4B1B685A1E084B1A600A
:101A780000F096FE386800F075F8054B1B68002BDF
:101A8800D2D10837BD4680BD300500205C05002056
:101A98004405002080B582B000AF7860134B1B6806
:101AA8007A685A60124B1B687A689A4209D2114BBD
:101AB8001A680E4B1B6804331046194600F02EFDB9
:101AC80010E00D4B1A68094B1B6804331046194681
:101AD80000F024FD094B1B687A689A4202D2074B32
:101AE8007A681A600837BD4680BD00BF84040020AC
:101AF80060050020180500201405002004000020BF
:101B080080B584B000AF03463960FB804C2001F0FB
:101B180069F9F860FB68002B1FD03B68002B06D1E1
:101B2800FB889B00184601F05DF9034600E03B681E
:101B3800FA681363FB681B6B002B05D1F86801F08A
:101B48009DF90023FB6008E0FB681A6BFB889B008B
:101B58001046A5211A4602F047FAFB6818461037C6
:101B6800BD4680BD80B582B000AF78607B681B6BD6
:101B7800184601F083F9786801F080F90837BD4606
:101B880080BD00BF80B483B000AF054B1B687B608D
:101B98007B6818460C37BD465DF8047B704700BF6C
:101BA8008404002080B483B000AF0B4B1B68002B6B
:101BB80002D100237B6008E0084B1B68002B02D190
:101BC80001237B6001E002237B607B6818460C37A9
:101BD800BD465DF8047B7047680500206C05002051
:101BE80080B584B000AF78607B68FB607B68002BB1
:101BF80046D0FB68DA6A244B1B68DB6A9A423FD2FC
:101C0800214B1B68DB6AC3F10502FB689A61FB681C
:101C18005969FB68DA6A13469B0013449B001B4A08
:101C28001344994201D1012300E00023002B22D064
:101C3800FB680433184600F0A9FC134B1B68DA6AEA
:101C4800FB68DA62FB68DA6A114B1B689A4203D9AF
:101C5800FB68DA6A0E4B1A60FB68DA6A13469B0067
:101C680013449B00094A1A44FB680433104619467A
:101C780000F030FC04E0044B1B68DA6AFB68DA62A7
:101C88001037BD4680BD00BF8404002088040020B2
:101C98006405002080B584B000AF78607B68FB6085
:101CA8007B68002B2CD0FB68DA6AFB689B6C9A4235
:101CB80026D0FB680433184600F068FCFB689A6C71
:101CC800FB68DA62FB68DB6AC3F10502FB689A61AC
:101CD800FB68DA6A0C4B1B689A4203D9FB68DA6A1C
:101CE800094B1A60FB68DA6A13469B0013449B0091
:101CF800064A1A44FB6804331046194600F0EAFB0A
:101D08001037BD4680BD00BF640500208804002050
:101D180080B584B000AF786039607B68FB60FB6891
:101D2800002B02D100F04EFDFEE700F029FDFB6814
:101D38001A68FB68DB6BF968096C01FB03F31A444A
:101D4800FB685A60FB6800229A63FB681A68FB68A4
:101D58009A60FB681A68FB68DB6B013BF968096CE1
:101D680001FB03F31A44FB68DA60FB684FF0FF32AB
:101D78005A64FB684FF0FF329A643B68002B0ED11F
:101D8800FB681B69002B14D0FB6810331846FFF75B
:101D9800DDFC0346012B0CD100F0E2FC09E0FB68F6
:101DA8001033184600F06AFBFB682433184600F02D
:101DB80065FB00F0F5FC012318461037BD4680BDD1
:101DC80080B588B000AFF860B9601346FB71002396
:101DD800FB61FB68002B2AD0502001F003F8B861A2
:101DE800BB69002B23D0FB68BA6802FB03F30133FD
:101DF8007B61786900F0F6FF0246BB691A60BB692F
:101E08001B68002B10D0BB69FA68DA63BB69BA6833
:101E18001A64B8690121FFF77BFFBB69FA7983F877
:101E28004D20BB69FB6102E0B86901F027F8FB6946
:101E3800002B02D100F0C6FCFEE7FB6918462037EC
:101E4800BD4680BD80B588B000AFF860B9607A60E3
:101E58003B600023FB61FB68BB61BB69002B02D1BF
:101E680000F0B0FCFEE7BB68002B03D1BB691B6C1C
:101E7800002B01D1012300E00023002B02D100F048
:101E8800A1FCFEE73B68022B03D1BB69DB6B012B8E
:101E980001D1012300E00023002B02D100F092FCC5
:101EA800FEE700F06DFCBB699A6BBB69DB6B9A427D
:101EB80002D33B68022B16D1B869B9683A6800F0BA
:101EC800A9F9BB695B6A002B09D0BB6924331846A2
:101ED800FFF73CFC0346012B01D100F041FC00F068
:101EE8005FFC012359E07B68002B03D100F058FC0C
:101EF800002352E0FB69002B06D107F110031846B6
:101F0800FFF780FC0123FB6100F04AFCFFF7CAF9E8
:101F180000F036FCBB695B6CB3F1FF3F02D1BB69D3
:101F280000225A64BB699B6CB3F1FF3F02D1BB69C5
:101F380000229A6400F034FC07F110023B1D1046A1
:101F48001946FFF779FC0346002B1ED1B86900F04B
:101F580051FA0346002B12D0BB6903F110027B68CB
:101F680010461946FFF794FBB86900F0E1F9FFF74E
:101F7800A7F90346002B0FD100F0F2FB0CE0B8697B
:101F880000F0D6F9FFF79CF98BE7B86900F0D0F9B3
:101F9800FFF796F9002300E083E718462037BD468F
:101FA80080BD00BF80B588B000AFF860B9607A60C6
:101FB8003B60FB68BB61BB69002B02D100F002FCEF
:101FC800FEE7BB68002B03D1BB691B6C002B01D15A
:101FD800012300E00023002B02D100F0F3FBFEE711
:101FE8003B68022B03D1BB69DB6B012B01D10123B9
:101FF80000E00023002B02D100F0E4FBFEE700F034
:102008004FFC00F0DFFB7861BB699A6BBB69DB6B47
:102018009A4202D33B68022B24D1B869B9683A685E
:1020280000F0F8F8BB699B6CB3F1FF3F12D1BB69B4
:102038005B6A002B13D0BB6924331846FFF786FB75
:102048000346002B0BD07B68002B08D07B6801224D
:102058001A6004E0BB699B6C5A1CBB699A64012333
:10206800FB6101E00023FB61786900F0B5FBFB69C7
:1020780018462037BD4680BD80B58AB000AFF860ED
:10208800B9607A603B6000237B62FB683B623B6A15
:10209800002B02D100F096FBFEE7BB68002B03D1B2
:1020A8003B6A1B6C002B01D1012300E00023002BAD
:1020B80002D100F087FBFEE700F062FB3B6A9B6BF6
:1020C800002B3BD03B6ADB68FB61386AB96800F0DB
:1020D80009F93B68002B1CD13B6A9B6B5A1E3B6A73
:1020E8009A633B6A1B68002B04D1FFF74BFD02463D
:1020F8003B6A5A603B6A1B69002B1BD03B6A103352
:102108001846FFF723FB0346012B13D100F028FBE9
:1021180010E03B6AFA69DA603B6A5B6A002B09D017
:102128003B6A24331846FFF711FB0346002B01D006
:1021380000F016FB00F034FB012366E07B68002BFF
:1021480003D100F02DFB00235FE07B6A002B06D152
:1021580007F114031846FFF755FB01237B6200F0D3
:102168001FFBFFF79FF800F00BFB3B6A5B6CB3F1BA
:10217800FF3F02D13B6A00225A643B6A9B6CB3F171
:10218800FF3F02D13B6A00229A6400F009FB07F185
:1021980014023B1D10461946FFF74EFB0346002B61
:1021A8002BD1386A00F010F90346002B1FD03B6A88
:1021B8001B68002B08D100F0E3FA3B6A5B681846FD
:1021C800FFF70EFD00F0ECFA3B6A03F124027B688E
:1021D80010461946FFF75CFA386A00F0A9F8FFF7CD
:1021E8006FF80346002B0FD100F0BAFA0CE0386AFA
:1021F80000F09EF8FFF764F85EE7386A00F098F898
:10220800FFF75EF8002300E056E718462837BD467A
:1022180080BD00BF80B584B000AFF860B9607A6057
:10222800FB681B6C002B0CD1FB681B68002B51D181
:10223800FB685B681846FFF72DFDFB6800225A60B3
:1022480048E07B68002B1AD1FB689A68FB681B6C16
:102258001046B9681A46FDF7BDFFFB689A68FB6827
:102268001B6C1A44FB689A60FB689A68FB685B6899
:102278009A422FD3FB681A68FB689A602AE0FB68C9
:10228800DA68FB681B6C1046B9681A46FDF7A2FFAE
:10229800FB68DA68FB681B6C5B421A44FB68DA600F
:1022A800FB68DA68FB681B689A4207D2FB685A68C1
:1022B800FB681B6C5B421A44FB68DA607B68022B84
:1022C80008D1FB689B6B002B04D0FB689B6B5A1EE4
:1022D800FB689A63FB689B6B5A1CFB689A63103710
:1022E800BD4680BD80B582B000AF786039607B683C
:1022F8001B68002B19D07B68DA687B681B6C1A4452
:102308007B68DA607B68DA687B685B689A4203D32B
:102318007B681A687B68DA607B68DA687B681B6CA4
:10232800386811461A46FDF755FF0837BD4680BD87
:1023380080B582B000AF786000F022FA14E07B68C4
:102348005B6A002B0AD07B6824331846FFF7FEF936
:102358000346002B03D0FFF7BFFA00E008E07B68D4
:102368009B6C5A1E7B689A647B689B6C002BE6DC2E
:102378007B684FF0FF329A6400F012FA00F000FA1E
:1023880014E07B681B69002B0FD07B68103318465C
:10239800FFF7DCF90346002B01D0FFF79DFA7B68B5
:1023A8005B6C5A1E7B685A6400E003E07B685B6CD8
:1023B800002BE6DC7B684FF0FF325A6400F0F0F93E
:1023C8000837BD4680BD00BF80B584B000AF7860D7
:1023D80000F0D6F97B689B6B002B02D10123FB60D0
:1023E80001E00023FB6000F0DBF9FB6818461037BA
:1023F800BD4680BD80B584B000AF786000F0C0F9FC
:102408007B689A6B7B68DB6B9A4202D10123FB6085
:1024180001E00023FB6000F0C3F9FB6818461037A1
:10242800BD4680BD80B584B000AF786039607B68F8
:10243800FB6000F0A5F9FB685B6CB3F1FF3F02D1CC
:10244800FB6800225A64FB689B6CB3F1FF3F02D122
:10245800FB6800229A6400F0A3F9FB689B6B002BD1
:1024680005D1FB68243318463968FFF747F9F8683F
:10247800FFF75EFF1037BD4680BD00BF80B483B054
:1024880000AF78607B6803F108027B685A607B685C
:102498004FF0FF329A607B6803F108027B68DA60CC
:1024A8007B6803F108027B681A617B6800221A6066
:1024B8000C37BD465DF8047B704700BF80B483B01D
:1024C80000AF78607B6800221A610C37BD465DF862
:1024D800047B704780B485B000AF786039607B6852
:1024E8005B68FB603B68FA685A60FB689A683B68FF
:1024F8009A60FB689B683A685A60FB683A689A6019
:102508003B687A681A617B681B685A1C7B681A608A
:102518001437BD465DF8047B704700BF80B485B0B2
:1025280000AF786039603B681B68BB60BB68B3F17B
:10253800FF3F03D17B681B69FB600CE07B680833B5
:10254800FB6002E0FB685B68FB60FB685B681A681D
:10255800BB689A42F6D9FB685A683B685A603B6880
:102568005B683A689A603B68FA689A60FB683A6800
:102578005A603B687A681A617B681B685A1C7B68DA
:102588001A601437BD465DF8047B704780B485B087
:1025980000AF78607B685B687A6892689A607B684D
:1025A8009B687A6852685A607B681B69FB60FB68A5
:1025B8005A687B689A4203D17B689A68FB685A60BC
:1025C8007B6800221A61FB681B685A1EFB681A6048
:1025D800FB681B6818461437BD465DF8047B7047D6
:1025E80080B485B000AFF860B9607A60FB68043BDE
:1025F800FB60FB684FF080721A60FB68043BFB606D
:10260800BA68FB681A60FB68043BFB600C4AFB680D
:102618001A60FB68143BFB607A68FB681A60FB6809
:10262800043BFB60FB686FF002021A60FB68203B0A
:10263800FB60FB6818461437BD465DF8047B70479D
:102648004D26000880B500AF054B1B68B3F1FF3F6E
:1026580002D000F0B7F8FEE700F0B4F8FEE700BFDC
:1026680008000020054B19680868B0E8F04F80F3AF
:1026780009884FF0000080F3118870478404002017
:1026880003480068006880F3088862B600DF00BF6E
:1026980008ED00E080B584B000AF2B4BFB60FB6811
:1026A8001B78DBB2BB60FB68FF221A70FB681B78E3
:1026B800DBB2FB71FB79DBB203F05003DAB2234BD8
:1026C8001A70234B07221A6009E0214B1B685A1E17
:1026D8001F4B1A60FB79DBB25B00DBB2FB71FB7945
:1026E800DBB2DBB25BB2002BEFDB194B1B681A02C3
:1026F800174B1A60164B1B6803F4E062144B1A6000
:10270800BB68DAB2FB681A70124B124A126842F4BC
:1027180070021A600F4B0F4A126842F070421A603A
:1027280000F09AF80C4B00221A6000F0AFF80B4B3F
:102738000A4A126842F040421A60FFF7A1FF0023DC
:1027480018461037BD4680BD00E400E08005002033
:102758008405002020ED00E00800002034EF00E0B0
:1027680080B400AF054B4FF080521A60BFF34F8F13
:10277800BFF36F8FBD465DF8047B704704ED00E042
:1027880080B500AF00F01EF8044B1B685A1C034BC1
:102798001A60BFF34F8FBFF36F8F80BD0800002012
:1027A80080B500AF064B1B685A1E054B1A60044BD8
:1027B8001B68002B02D1002000F00EF880BD00BF7E
:1027C80008000020EFF311804FF0500181F31188C9
:1027D80070470023184600BF80F31188704700BF78
:1027E800EFF30980114B1A681EF0100F08BF20ED97
:1027F800108A20E9F04F10602DE908404FF0500092
:1028080080F31188FEF7CAFE4FF0000080F31188AC
:10281800BDE8084019680868B0E8F04F1EF0100FCE
:1028280008BFB0EC108A80F3098870478404002040
:1028380080B500AFFFF7C6FFFEF7DAFD0346002BB1
:1028480003D0044B4FF080521A600020FFF7C4FFFA
:1028580080BD00BF04ED00E080B400AF074B084A1C
:102868001168084AA2FB01029209013A1A60064B54
:1028780007221A60BD465DF8047B704714E000E04B
:1028880000000020D34D621010E000E0DFF80C00DB
:10289800016841F4700101607047000088ED00E0B4
:1028A80080B582B000AFEFF305837B607B680F2BA8
:1028B8000CD90D4A7B6813441B78FB700B4B1B78B3
:1028C800FA789A4202D2FFF77DFFFEE7084B1B68B1
:1028D80003F4E062074B1B689A4202D9FFF772FFC4
:1028E800FEE70837BD4680BDF0E300E08005002024
:1028F8000CED00E08405002080B586B004AF00230D
:102908007B6000F045FA0F4B1B68002B0FD00223A9
:1029180000930023019300230293002303930A48A2
:102928000A494FF482720023FEF70AFB78607B683D
:10293800002B02D1FFF746FFFEE77B6818460837F1
:10294800BD4680BDB8050020552A0008B0410008E2
:1029580080B588B000AFF860B9607A603B6000234A
:10296800FB611D4B1B68002B30D0BB683B617B684B
:102978007B61FB68BB613B68002B1CD1FFF712F938
:102988000346012B0BD1144B1A6807F110031046AC
:102998001946BA6A0023FFF755FAF86116E00E4B9C
:1029A8001A6807F110031046194600220023FFF7A2
:1029B80049FAF8610AE0084B1A6807F11003104653
:1029C80019463A680023FFF7EDFAF861FB691846E3
:1029D8002037BD4680BD00BFB805002080B586B051
:1029E80002AF78603960184B1B68DB68DB68FB60F6
:1029F800FB6804331846FFF7C9FDFB68DB69012B48
:102A08001BD1FB689A697B681344F86819463A68D1
:102A18007B6800F0A9F80346012B0ED10023009330
:102A2800F86800217A680023FFF792FFB860BB6856
:102A3800002B02D1FFF7C6FEFEE7FB685B6AF86869
:102A480098471037BD4680BDB005002080B584B0DA
:102A580000AF786007F10803184600F03FF8F86007
:102A6800BB68F868194600F003F800F0BFF8F1E712
:102A780080B584B000AF78603960FEF713FC07F1C9
:102A88000803184600F04EF8F860BB68002B1ED10A
:102A98003B68002B0AD17A68FB689A4206D8FEF791
:102AA8000FFC7868F968FFF799FF12E00A4B1A687B
:102AB8007968FB68CB1A10461946FFF7B3FCFEF796
:102AC800FFFB0346002B04D1FFF74AFE01E0FEF7A7
:102AD800F7FB1037BD4680BDB805002080B485B02F
:102AE80000AF78600E4B1B681B68002B14BF0023D7
:102AF8000123DBB21A467B681A607B681B68002BCF
:102B080005D1074B1B68DB681B68FB6001E00023ED
:102B1800FB60FB6818461437BD465DF8047B7047B8
:102B2800B005002080B584B000AF7860FEF74EFC99
:102B3800F8600C4B1B68FA689A4208D2094B1B686C
:102B4800184600F0CBF87B6801221A6002E07B6827
:102B580000221A60034BFA681A60FB68184610379F
:102B6800BD4680BDBC05002080B586B000AFF860CA
:102B7800B9607A603B6000237B61FB68BA685A6081
:102B8800FB68FA681A61BA687B689A4212D87A6850
:102B98003B68D21AFB689B699A4202D301237B6186
:102BA8001BE0104B1A68FB68043310461946FFF700
:102BB800B5FC12E07A683B689A4206D2BA683B686C
:102BC8009A4202D301237B6107E0074B1A68FB682E
:102BD800043310461946FFF7A1FC7B6918461837DD
:102BE800BD4680BDB4050020B005002080B58AB080
:102BF80002AF60E03B69FB61FB695B69002B04D0B5
:102C0800FB6904331846FFF7C1FC3B1D1846FFF764
:102C180089FFB861BB68032B4CD801A252F823F096
:102C2800392C0008BD2C00088B2C0008B52C000896
:102C3800FA68FB699B691A44FB68F8691146BA6926
:102C4800FFF792FF0346012B1AD1FB695B6AF8690B
:102C58009847FB69DB69012B12D1FA68FB699B690C
:102C6800134400220092F86900211A460023FFF756
:102C78006FFE78617B69002B02D1FFF7A3FDFEE7A9
:102C880019E0FA68FB699A61FB699B69002B02D11C
:102C9800FFF798FDFEE7FB699A69BB691344F86979
:102CA8001946BA69BB69FFF75FFF04E0F86900F0ED
:102CB800E5F800E000BF084B1A6807F10803104662
:102CC800194600220023FFF7D7F90346002B91D1BC
:102CD8002037BD4680BD00BFB805002080B58AB04A
:102CE80002AF78603DE0284B1B68DB681B68FB611E
:102CF800254B1B68DB68DB68BB61BB69043318467E
:102D0800FFF744FCBB695B6AB8699847BB69DB6934
:102D1800012B26D1BB699A69FB6913447B617A69E7
:102D2800FB699A420ED9BB697A695A60BB69BA696C
:102D38001A61154B1A68BB69043310461946FFF728
:102D4800EDFB0EE000230093B8690021FA69002327
:102D5800FFF7FEFD38613B69002B02D1FFF732FD1A
:102D6800FEE7094B1B681B68002BBCD1064B1B6890
:102D7800FB60064B1A68044B1A60044BFA681A6029
:102D88002037BD4680BD00BFB0050020B405002037
:102D980080B500AFFFF7F4FC0D4B1B68002B13D177
:102DA8000C48FFF76BFB0C48FFF768FB0B4B094A15
:102DB8001A600B4B084A1A600A200C210022FEF701
:102DC800FFFF0246024B1A60FFF7EAFC80BD00BF16
:102DD800B8050020880500209C050020B0050020CB
:102DE800B405002080B584B000AF78600023FB6094
:102DF8007B6803F00703002B04D07B6823F00703EC
:102E080008337B60FEF74EFA184B1B68002B05D180
:102E1800174B23F007031A46144B1A60154B1A6810
:102E28007B681A44144B9A4213D8124B1A687B6871
:102E38001A44104B1B689A420BD90C4B1A680D4B5D
:102E48001B681344FB600B4B1A687B681A44094BD8
:102E58001A60FEF735FAFB68002B01D1FDF74AFF2F
:102E6800FB6818461037BD4680BD00BFC43101203D
:102E7800C8050020C0310120F72B010080B582B0C1
:102E880000AF78607B68002B02D0FFF79BFCFEE761
:102E98000837BD4680BD00BF80B588B004AF7860F4
:102EA8000023FB6010E07B6800930023019300235C
:102EB8000293002303930748074982220023FEF761
:102EC8003FF8FB680133FB60FB68022BEBDD103732
:102ED800BD4680BDE52E0008B841000880B586B023
:102EE80000AF7860FFF74CFC154B1B687B61144BF7
:102EF8001B685A1C124B1A60FFF752FC7B6901339E
:102F080040F24D1202FB03F33B613B695B083B61F6
:102F1800FEF75CFA0346FB6007F10C0318463969B3
:102F2800FEF708F97869FDF713FF07F10C03184657
:102F38003969FEF7FFF87869FDF70AFFECE700BF8B
:102F4800C831012080B584B000AF0346FB71FA791F
:102F5800104B53F822301846012100F0E7FBFA79AC
:102F68000D4B33F81230BB6001233B730023BB7356
:102F78000123FB7302237B73FA79084B53F8222051
:102F880007F108031046194600F0E8F81037BD4667
:102F980080BD00BF6C450008644500080C00002097
:102FA80080B483B000AF0346FB71FA79094B53F83C
:102FB8002230F979074A52F821205169F879064AEE
:102FC80032F810204A405A610C37BD465DF8047B40
:102FD800704700BF0C0000206445000880B582B02F
:102FE80000AF78607B68B3F5E06F13D07B68B3F50A
:102FF800C06F0FD07B68B3F5A06F0BD07B68B3F5BB
:10300800806F07D07B68B3F5407F03D006487321F3
:10301800FDF784FE054A7B6843F0BF6343F4003341
:10302800D3600837BD4680BDC041000800ED00E010
:1030380080B584B000AF78600023FB730023BB73B6
:103048000F237B737B68DB78002B07D07B68DB78EA
:10305800012B03D030488721FDF760FE7B685B7841
:103068000F2B03D92C488821FDF758FE7B689B78E5
:103078000F2B03D928488921FDF750FE7B68DB78A0
:10308800002B37D0254BDB68DB4303F4E0631B0AD6
:10309800FB73FB7BC3F10403BB737A7BFB7B42FAB4
:1030A80003F37B737B685B781A46BB7B02FA03F3F6
:1030B800FB737B689A787B7B1340DAB2FB7B134304
:1030C800FB73FB7B1B01FB73154A7B681B7813445E
:1030D800FA7B83F80023124B7A6812785209D2B22D
:1030E8007968097801F01F01012000FA01F143F81D
:1030F80022100EE00A4B7A6812785209D2B2796827
:10310800097801F01F01012000FA01F1203243F88B
:1031180022101037BD4680BDC041000800ED00E018
:1031280000E100E080B582B000AF78607B68DB0D1D
:10313800DB05002B02D17B68002B04D1054840F247
:103148001D11FDF7EBFD044B7A685A610837BD463F
:1031580080BD00BF08420008003C014080B586B031
:1031680000AF7860396000237B6100233B61002356
:10317800FB607A687A4B9A4223D07A68794B9A42F4
:103188001FD07A68784B9A421BD07A68774B9A425C
:1031980017D07A68764B9A4213D07A68754B9A4260
:1031A8000FD07A68744B9A420BD07A68734B9A4264
:1031B80007D07A68724B9A4203D07248BB21FDF758
:1031C800ADFD3B681B68002B03D16E48BC21FDF7A1
:1031D800A5FD3B681B79002B0FD03B681B79012BA1
:1031E8000BD03B681B79022B07D03B681B79032B5C
:1031F80003D06448BD21FDF791FD3B68DB79002BC6
:103208000BD03B68DB79012B07D03B68DB79022BBD
:1032180003D05C48BE21FDF781FD00237B6197E068
:103228007B69012202FA03F33B613B681A683B6938
:103238001340FB60FA683B699A4240F086807B68DD
:103248001A687B695B00032101FA03F3DB431A4028
:103258007B681A607B681A683B681B7919467B692A
:103268005B0001FA03F31A437B681A603B681B7919
:10327800012B03D03B681B79022B4ED13B685B794D
:10328800002B0FD03B685B79012B0BD03B685B7937
:10329800022B07D03B685B79032B03D03948D02138
:1032A800FDF73CFD7B689A687B695B00032101FAA6
:1032B80003F3DB431A407B689A607B689A683B6833
:1032C8005B7919467B695B0001FA03F31A437B6853
:1032D8009A603B689B79002B07D03B689B79012B50
:1032E80003D02848D721FDF719FD7B685A687B6908
:1032F8009BB2012101FA03F3DB431A407B685A6051
:103308007B685A683B689B7919467B699BB201FACE
:1033180003F39BB21A437B685A607B68DA687B695F
:103328009BB25B00032101FA03F3DB431A407B687D
:10333800DA607B68DA683B68DB7919467B695B0091
:1033480001FA03F31A437B68DA607B6901337B6116
:103358007B690F2B7FF664AF1837BD4680BD00BF71
:10336800000002400004024000080240000C024035
:10337800001002400014024000180240001C0240E5
:10338800002002405842000880B584B000AF786041
:1033980013460A467A807B700023FB600023BB60DB
:1033A8007A68834B9A4224D07A68824B9A4220D01A
:1033B8007A68814B9A421CD07A68804B9A4218D01E
:1033C8007A687F4B9A4214D07A687E4B9A4210D022
:1033D8007A687D4B9A420CD07A687C4B9A4208D026
:1033E8007A687B4B9A4204D07A4840F21721FDF75D
:1033F80095FC7B88002B31D07B88012B2ED07B88D5
:10340800022B2BD07B88032B28D07B88042B25D03C
:103418007B88052B22D07B88062B1FD07B88072B27
:103428001CD07B88082B19D07B88092B16D07B8869
:103438000A2B13D07B880B2B10D07B880C2B0DD03C
:103448007B880D2B0AD07B880E2B07D07B880F2B0F
:1034580004D060484FF40671FDF760FC7B78002BC0
:103468006DD07B78092B6AD07B78002B67D07B786E
:10347800002B64D07B78002B61D07B78002B5ED04A
:103488007B78012B5BD07B78012B58D07B78022B83
:1034980055D07B78022B52D07B78022B4FD07B788B
:1034A800032B4CD07B78042B49D07B78042B46D057
:1034B8007B78042B43D07B78052B40D07B78052B79
:1034C8003DD07B78092B3AD07B78062B37D07B7898
:1034D800092B34D07B78072B31D07B78072B2ED063
:1034E8007B78072B2BD07B78082B28D07B78082B70
:1034F80025D07B78082B22D07B78092B1FD07B78AE
:10350800092B1CD07B780A2B19D07B780A2B16D074
:103518007B780B2B13D07B780C2B10D07B780C2B63
:103528000DD07B780C2B0AD07B780D2B07D07B78BD
:103538000F2B04D0274840F21921FDF7EFFB7A78CA
:103548007B8803F007039B0002FA03F3FB607B8888
:10355800DB089BB21A467B88DB089BB219467B685E
:10356800083153F821107B8803F007039B000F20D4
:1035780000FA03F3DB4319407B68083243F8221052
:103588007B88DB089BB21A467B68083253F82220F6
:10359800FB681343BB607B88DB089BB21A467B68D9
:1035A8000832B96843F822101037BD4680BD00BF05
:1035B800000002400004024000080240000C0240E3
:1035C800001002400014024000180240001C024093
:1035D800002002405842000880B489B000AF7860EB
:1035E8000023BB6100237B610023FB6102233B6155
:1035F8000023FB600223BB60484B9B6803F00C036D
:10360800BB61BB69042B07D0082B09D0002B3FD125
:103618007B68434A1A603FE07B68424A1A603BE095
:103628003E4B5B6803F480039B0DFB603B4B5B6880
:1036380003F03F03BB60FB68002B0DD0394ABB6821
:10364800B2FBF3F2354B596847F6C0730B409B0940
:1036580003FB02F3FB610CE0314ABB68B2FBF3F2F7
:103668002E4B596847F6C0730B409B0903FB02F3C6
:10367800FB612A4B5B6803F440331B0C01335B008E
:103688003B61FA693B69B2FBF3F27B681A6003E0BD
:103698007B68234A1A6000BF204B9B6803F0F00345
:1036A800BB61BB691B09BB611F4ABB6913441B781B
:1036B800DBB27B617B681A687B69DA407B685A6099
:1036C800164B9B6803F4E053BB61BB699B0ABB6163
:1036D800154ABB6913441B78DBB27B617B685A6867
:1036E8007B69DA407B689A600C4B9B6803F4604303
:1036F800BB61BB695B0BBB610B4ABB6913441B789D
:10370800DBB27B617B685A687B69DA407B68DA6088
:103718002437BD465DF8047B704700BF003802407F
:103728000024F40040787D011C00002080B582B0A0
:1037380000AF78600B46FB707A68154B1340002B7E
:1037480002D17B68002B04D112484FF48861FDF741
:10375800E5FAFB78002B07D0FB78012B04D00D4845
:1037680040F24241FDF7DAFAFB78002B06D00A4B0B
:10377800094A116B7A680A431A6306E0064B064A3F
:10378800116B7A68D2430A401A630837BD4680BD78
:1037980000EE8B81A84200080038024080B582B054
:1037A80000AF78600B46FB707A68154B1340002B0E
:1037B80002D17B68002B04D1124840F2D541FDF7B5
:1037C800ADFAFB78002B07D0FB78012B04D00D480D
:1037D80040F2D641FDF7A2FAFB78002B06D00A4B3F
:1037E800094A516C7A680A435A6406E0064B064A4D
:1037F800516C7A68D2430A405A640837BD4680BD86
:10380800CCA0F8FFA84200080038024080B58AB072
:1038180000AF7860396000237B6200233B6200239D
:10382800FB610023BB617A68974B9A4217D07A688C
:10383800964B9A4213D07A68954B9A420FD07A6881
:10384800944B9A420BD07A68934B9A4207D07A6885
:10385800924B9A4203D09248EB21FDF75FFA3B68FE
:103868001B68002B04D03B681A688E4B9A4203D918
:103878008B48EC21FDF752FA3B689B88002B08D057
:103888003B689B88B3F5805F03D08548ED21FDF741
:1038980045FA3B68DB88002B12D03B68DB88B3F520
:1038A800805F0DD03B68DB88B3F5005F08D03B68CC
:1038B800DB88B3F5405F03D07948EE21FDF72EFA97
:1038C8003B681B89002B0DD03B681B89B3F5806FC3
:1038D80008D03B681B89B3F5C06F03D07048EF214F
:1038E800FDF71CFA3B685B891A464FF6F3731340E1
:1038F800002B03D13B685B89002B03D16848F0217A
:10390800FDF70CFA3B689B89002B12D03B689B891A
:10391800B3F5807F0DD03B689B89B3F5007F08D055
:103928003B689B89B3F5407F03D05D48F121FDF7E3
:10393800F5F93B689B89002B13D07A68524B9A4261
:103948000FD07A68514B9A420BD07A68504B9A4202
:1039580007D07A68514B9A4203D05148F621FDF7B7
:10396800DDF97B681B8A9BB27B627B6A23F4405338
:103978007B623B68DB887A6A13437B627B6A9AB214
:103988007B681A827B689B899BB27B627B6A23F483
:10399800B05323F00C037B623B689A883B681B8911
:1039A80013439AB23B685B8913439BB27A6A134309
:1039B8007B627B6A9AB27B689A817B689B8A9BB29E
:1039C8007B627B6A23F440737B623B689B897A6ADB
:1039D80013437B627B6A9AB27B689A8207F1080379
:1039E8001846FFF7F9FD7A68274B9A4203D07A68A0
:1039F8002A4B9A4202D17B693B6201E03B693B62F8
:103A08007B689B899BB29BB21BB2002B0CDA3A6A8B
:103A180013469B0013449A001A443B681B685B00DA
:103A2800B2FBF3F3FB610BE03A6A13469B001344C5
:103A38009A001A443B681B689B00B2FBF3F3FB61D6
:103A4800FA69194BA3FB02135B091B017B627B6AB2
:103A58001B09642202FB03F3FA69D31ABB617B6872
:103A68009B899BB29BB21BB2002B1FDABB69DB00A0
:103A780003F132020C4BA3FB02135B0903F00703AB
:103A88007A6A13437B621EE0001001400044004044
:103A980000480040004C0040005000400014014025
:103AA800F8420008E07072001F85EB51BB691B01EA
:103AB80003F13202074BA3FB02135B0903F00F0368
:103AC8007A6A13437B627B6A9AB27B681A812837C9
:103AD800BD4680BD1F85EB5180B582B000AF7860D0
:103AE8000B46FB707A681F4B9A4218D07A681E4BB7
:103AF8009A4214D07A681D4B9A4210D07A681C4BAF
:103B08009A420CD07A681B4B9A4208D07A681A4BB2
:103B18009A4204D0194840F29B11FDF7FFF8FB7850
:103B2800002B07D0FB78012B04D014484FF4CE713A
:103B3800FDF7F4F8FB78002B08D07B689B899BB2D3
:103B480043F400539AB27B689A8107E07B689B89AB
:103B58009BB223F400539AB27B689A810837BD461A
:103B680080BD00BF001001400044004000480040F4
:103B7800004C00400050004000140140F84200088A
:103B880080B582B000AF78600B467B807A68174BAF
:103B98009A4218D07A68164B9A4214D07A68154B14
:103BA8009A4210D07A68144B9A420CD07A68134B18
:103BB8009A4208D07A68124B9A4204D0114840F2CF
:103BC8001D21FDF7ABF87B88B3F5007F04D30D48C2
:103BD80040F21E21FDF7A2F87B88C3F308039AB2CE
:103BE8007B689A800837BD4680BD00BF0010014041
:103BF8000044004000480040004C00400050004095
:103C080000140140F842000880B586B000AF786023
:103C180013460A467A807B7000233B610023FB60D1
:103C28000023BB6000237B617A684F4B9A4218D00F
:103C38007A684E4B9A4214D07A684D4B9A4210D00B
:103C48007A684C4B9A420CD07A684B4B9A4208D00F
:103C58007A684A4B9A4204D0494840F2BD41FDF780
:103C68005DF87B88282B25D07A8840F227739A4202
:103C780020D07A8840F226639A421BD07A8840F294
:103C880025539A4216D07A8840F224439A4211D09A
:103C98007A8840F646039A420CD07A8840F66A132E
:103CA8009A4207D07B88602B04D0354840F2BE4149
:103CB800FDF734F87B78002B07D07B78012B04D0F4
:103CC8002F4840F2BF41FDF729F87A8840F66A1379
:103CD8009A4214D17A68244B9A4210D07A68234BBE
:103CE8009A420CD07A68224B9A4208D07A68234BC1
:103CF8009A4204D0224840F2C441FDF70FF87B688D
:103D08007B617B88DBB25B09DBB23B617B8803F0BC
:103D18001F03FB60FB68012202FA03F3BB603B69E7
:103D2800012B03D17B690C337B6109E03B69022BD2
:103D380003D17B6910337B6102E07B6914337B61BB
:103D48007B78002B06D07B697A691168BA680A43C8
:103D58001A6006E07B697A691168BA68D2430A403A
:103D68001A601837BD4680BD00100140004400406D
:103D780000480040004C0040005000400014014042
:103D8800F842000880B586B000AF78600B467B80AB
:103D98000023FB6000237B610023BB600023FB74CE
:103DA8007A685C4B9A4218D07A685B4B9A4214D076
:103DB8007A685A4B9A4210D07A68594B9A420CD07A
:103DC8007A68584B9A4208D07A68574B9A4204D07E
:103DD80056484FF4AA61FCF7A1FF7B88282B37D0FF
:103DE8007A8840F227739A4232D07A8840F2266362
:103DF8009A422DD07A8840F225539A4228D07A8860
:103E080040F224439A4223D07A8840F646039A42E5
:103E18001ED07A8840F66A139A4219D07B88B3F587
:103E2800587F15D07A8840F225339A4210D07B8883
:103E3800B3F5587F0CD07B88B3F5187F08D07B8802
:103E4800B3F5B07F04D0394840F25151FCF766FF12
:103E58007A8840F66A139A4214D17A682D4B9A42AE
:103E680010D07A682C4B9A420CD07A682B4B9A4225
:103E780008D07A682C4B9A4204D02C4840F256510C
:103E8800FCF74CFF7B88DBB25B09DBB2BB607B884D
:103E980003F01F037B617B69012202FA03F37B6154
:103EA800BB68012B06D17B689B899BB27A6913405A
:103EB8007B610FE0BB68022B06D17B681B8A9BB233
:103EC8007A6913407B6105E07B689B8A9BB27A69BB
:103ED80013407B617B881B0A9BB2FB60FB68012255
:103EE80002FA03F3FB607B681B889BB2FA681340F5
:103EF800FB607B69002B05D0FB68002B02D00123F7
:103F0800FB7401E00023FB74FB7C18461837BD46A0
:103F180080BD00BF00100140004400400048004040
:103F2800004C00400050004000140140F8420008D6
:103F380070B50F4E0F4D761BB61007D0043D002408
:103F4800013455F8043F9847A642F9D10A4E0B4D63
:103F5800761B00F013FBB61008D0043D0024013492
:103F680055F8043F9847A642F9D170BD70BD00BF0F
:103F78009C4500089C450008A44500089C4500088D
:103F8800032A70B428D940EA01039B0713D00578A7
:103F98000C78A54224D1013A002305E010F8015F0E
:103FA80011F8014FA5421BD1934203F10103F5D14A
:103FB800002070BC70470C46034625681E68AE4258
:103FC8002146184604F1040403F1040304D1043A19
:103FD800032A18462146F0D8002AD8D11046E8E727
:103FE800281B70BC704700BFF0B4840743D0541E30
:103FF800002A3ED0CDB2034603E0621E002C38D022
:10400800144603F8015B9A07F7D1032C2AD9CDB2DD
:1040180045EA05250F2C45EA054515D9A4F11007F1
:104028003F0903F1100606EB07161A46156055609E
:104038009560D5601032B242F8D104F00F04013710
:10404800032C03EB07130DD91E462246043A032A14
:1040580046F8045BFAD8221F22F003020432134404
:1040680004F003042CB1C9B21C4403F8011BA34299
:10407800FBD1F0BC704714460346C6E7024B13B1A8
:10408800024800F005B8704700000000A54000088D
:10409800014600200246034600F018B838B5094D1D
:1040A800094C641BA41018BF05EB840505D0013C1E
:1040B80055F8043D9847002CF9D1BDE8384000F088
:1040C80063BA00BFA4450008A8450008F0B5274C0E
:1040D8002668D6F8484185B00746002C41D0656867
:1040E8001F2D1EDD224818B94FF0FF3005B0F0BD76
:1040F8004FF4C870039102920193AFF300800399C3
:10410800029A019B04460028EED0D6F84851256053
:10411800002060600546C6F84841C4F88801C4F824
:104128008C013FB9AB1C00200135656044F82310B1
:1041380005B0F0BD04EB85004FF0010CC0F88820F5
:10414800D4F888610CFA05F21643022FC4F8886186
:10415800C0F80831E6D1D4F88C311A43C4F88C2160
:10416800E0E706F5A674C6F84841B8E780450008B8
:10417800000000006D6F646275730000526567315E
:1041880000000000526567320000000042746E545F
:1041980065737400436865636B54696D65720000EC
:1041A80049444C4500000000546D7220537663006A
:1041B8004C454478000000004170702F53544D3333
:1041C8003246342D446973636F766572792F4C6972
:1041D800627261726965732F53544D333246347875
:1041E800785F5374645065726970685F4472697669
:1041F80065722F7372632F6D6973632E63000000FD
:104208004170702F53544D333246342D44697363D3
:104218006F766572792F4C69627261726965732F66
:1042280053544D3332463478785F53746450657212
:104238006970685F4472697665722F7372632F7351
:10424800746D3332663478785F657874692E6300EC
:104258004170702F53544D333246342D4469736383
:104268006F766572792F4C69627261726965732F16
:1042780053544D3332463478785F537464506572C2
:104288006970685F4472697665722F7372632F7301
:10429800746D3332663478785F6770696F2E6300A7
:1042A8004170702F53544D333246342D4469736333
:1042B8006F766572792F4C69627261726965732FC6
:1042C80053544D3332463478785F53746450657272
:1042D8006970685F4472697665722F7372632F73B1
:1042E800746D3332663478785F7263632E630000CE
:1042F8004170702F53544D333246342D44697363E3
:104308006F766572792F4C69627261726965732F75
:1043180053544D3332463478785F53746450657221
:104328006970685F4472697665722F7372632F7360
:10433800746D3332663478785F75736172742E6386
:104348000000000000C1814001C0804101C08041DF
:1043580000C1814001C0804100C1814000C181404D
:1043680001C0804101C0804100C1814000C181403D
:1043780001C0804100C1814001C0804101C080412D
:1043880000C1814001C0804100C1814000C181401D
:1043980001C0804100C1814001C0804101C080410D
:1043A80000C1814000C1814001C0804101C08041FD
:1043B80000C1814001C0804100C1814000C18140ED
:1043C80001C0804101C0804100C1814000C18140DD
:1043D80001C0804100C1814001C0804101C08041CD
:1043E80000C1814000C1814001C0804101C08041BD
:1043F80000C1814001C0804100C1814000C18140AD
:1044080001C0804100C1814001C0804101C080419C
:1044180000C1814001C0804100C1814000C181408C
:1044280001C0804101C0804100C1814000C181407C
:1044380001C0804100C1814001C0804101C080416C
:1044480000C1814000C0C101C30302C2C60607C73C
:1044580005C5C404CC0C0DCD0FCFCE0E0ACACB0BAC
:10446800C90908C8D81819D91BDBDA1A1EDEDF1FDC
:10447800DD1D1CDC14D4D515D71716D6D21213D3CC
:1044880011D1D010F03031F133F3F23236F6F7377C
:10449800F53534F43CFCFD3DFF3F3EFEFA3A3BFB6C
:1044A80039F9F83828E8E929EB2B2AEAEE2E2FEF1C
:1044B8002DEDEC2CE42425E527E7E62622E2E3238C
:1044C800E12120E0A06061A163A3A26266A6A767BC
:1044D800A56564A46CACAD6DAF6F6EAEAA6A6BAB2C
:1044E80069A9A86878B8B979BB7B7ABABE7E7FBF5C
:1044F8007DBDBC7CB47475B577B7B67672B2B3734C
:10450800B17170B0509091519353529296565797FB
:10451800559594549C5C5D9D5F9F9E5E5A9A9B5BEB
:1045280099595898884849894B8B8A4A4E8E8F4F9B
:104538008D4D4C8C4484854587474686824243830B
:104548004181804001000203A5A5A5A5A5A5A5A5B3
:10455800A5A5A5A5A5A5A5A5A5A5A5A50010002067
:10456800004000800800000008000000080000006B
:10457800080000004300000030000020F8B500BF2C
:10458800F8BC08BC9E467047F8B500BFF8BC08BC2C
:044598009E46704784
:08459C0085400008AD01000894
:0445A4008901000881
:1045A80080D1F008FFFFFFFFAAAAAAAA000C0240C8
:1045B800000C0240000C0240000C02400000000009
:1045C80001020304010203040607080900000000B1
:1045D800000000001C03002084030020EC030020DE
:1045E80000000000000000000000000000000000C3
:1045F80000000000000000000000000000000000B3
:10460800000000007C4500080000000000000000D9
:104618000000000000000000000000000000000092
:104628000000000000000000000000000000000082
:104638000000000000000000000000000000000072
:104648000000000000000000000000000000000062
:104658000000000000000000000000000000000052
:104668000000000000000000000000000000000042
:104678000000000000000000010000000000000031
:104688000E33CDAB34126DE6ECDE05000B000000F6
:104698000000000000000000000000000000000012
:1046A8000000000000000000000000000000000002
:1046B80000000000000000000000000000000000F2
:1046C80000000000000000000000000000000000E2
:0400000508000D8959
:00000001FF
